:100000000C942A000C943F000C943F000C943F0089
:100010000C943F000C943F000C943F000C943F0064
:100020000C943F000C943F000C943F000C943F0054
:100030000C943F000C943F000C943F000C943F0044
:100040000C943F000C943F000C943F000C943F0034
:100050000C943F0011241FBECFE5D4E0DEBFCDBF1E
:1000600010E0A0E6B0E0E2EBF2E002C005900D92F5
:10007000A037B107D9F70E94BF000C9457010C9428
:100080000000282F207F25BBA898A998AA9A2AEFBC
:1000900030E0F9013197F1F7AA9890E044E0880F39
:1000A000991F4A95E1F785BBA898A998AA9AC90112
:1000B0000197F1F7AA980895282F207F25BBA89AC9
:1000C000A998AA9A2AEF30E0F9013197F1F7AA9896
:1000D00090E054E0880F991F5A95E1F785BBA89AE4
:1000E000A998AA9AC9010197F1F7AA98089582E000
:1000F0000E94410088E20E9441008CE00E94410081
:1001000086E00E9441000895CF93DF93EC0102C086
:100110000E945C0089918823D9F7DF91CF910895DF
:10012000EF92FF920F931F937B018C0184E00E945A
:10013000410018C0C801B7012AE030E040E050E0BB
:100140000E943501862F805D0E945C00C801B701C6
:100150002AE030E040E050E00E943501C901DA01B8
:100160007C018D01E114F1040105110519F786E008
:100170000E9441001F910F91FF90EF900895EF9220
:10018000FF920F931F93CF93DF938FEF84BB0E9457
:10019000770081E00E9441008AEF90E00197F1F73B
:1001A000C0E8D0E000E513EC6AEFE62EF12C13C0B6
:1001B0009E012150822F0E94410080E20E945C003B
:1001C0008C2F0E94410080E690E00E948400C801CC
:1001D0000197F1F72196C139D10554F3CFECD0E066
:1001E0008C2F0E94410084E690E00E948400C801A8
:1001F0000197F1F7C03CD10581F581E00E944100F3
:10020000C7010197F1F780EC0E94410089E690E078
:100210000E948400C8010197F1F781E00E9441002B
:10022000C7010197F1F780EC0E9441008CE690E055
:100230000E948400C8010197F1F781E00E9441000B
:10024000C7010197F1F780EC0E9441008EE690E033
:100250000E948400C8010197F1F72197CF3BD10597
:1002600009F0BECFC0E8D0E0B6CFA1E21A2EAA1B9B
:10027000BB1BFD010DC0AA1FBB1FEE1FFF1FA21756
:10028000B307E407F50720F0A21BB30BE40BF50B53
:10029000661F771F881F991F1A9469F760957095DC
:1002A000809590959B01AC01BD01CF010895F89414
:0202B000FFCF7E
:1002B200495142004951422000514200420020006F
:00000001FF
