:100000000C942A000C943F000C943F000C943F0089
:100010000C943F000C943F000C943F000C943F0064
:100020000C943F000C943F000C943F000C943F0054
:100030000C943F000C943F000C943F000C943F0044
:100040000C943F000C943F000C943F000C943F0034
:100050000C943F0011241FBECFE5D4E0DEBFCDBF1E
:1000600010E0A0E6B0E0EAEDF3E002C005900D92EA
:10007000A238B107D9F70E9455010C94EB010C94FA
:100080000000282F207F25BBA898A998AA9A2AEFBC
:1000900030E0F9013197F1F7AA9890E044E0880F39
:1000A000991F4A95E1F785BBA898A998AA9AC90112
:1000B0000197F1F7AA980895282F207F25BBA89AC9
:1000C000A998AA9A2AEF30E0F9013197F1F7AA9896
:1000D00090E054E0880F991F5A95E1F785BBA89AE4
:1000E000A998AA9AC9010197F1F7AA98089582E000
:1000F0000E94410088E20E9441008CE00E94410081
:1001000086E00E9441000895CF93DF93EC0102C086
:100110000E945C0089918823D9F7DF91CF910895DF
:10012000EF92FF920F931F937B018C0184E00E945A
:10013000410018C0C801B7012AE030E040E050E0BB
:100140000E94C901862F805D0E945C00C801B70132
:100150002AE030E040E050E00E94C901C901DA0124
:100160007C018D01E114F1040105110519F786E008
:100170000E9441001F910F91FF90EF900895E19927
:10018000FECF9FBB8EBB6DBBE29AE19A0895E199C9
:10019000FECF9FBB8EBBE09A8DB308957EE024EC2A
:1001A00039E06DE05BE047E072BBC9010197F1F710
:1001B000C89905C0C89BFECF20E030E074C0C99943
:1001C00005C0C99BFECF21E030E06DC0CA9905C0D3
:1001D000CA9BFECF22E030E066C0CB9905C0CB9B26
:1001E000FECF23E030E05FC062BBC9010197F1F7A9
:1001F000C89905C0C89BFECF24E030E054C0C9991F
:1002000005C0C99BFECF25E030E04DC0CA9905C0AE
:10021000CA9BFECF26E030E046C0CB9905C0CB9B01
:10022000FECF27E030E03FC052BBC9010197F1F794
:10023000C89905C0C89BFECF28E030E034C0C999FA
:1002400005C0C99BFECF29E030E02DC0CA9905C08A
:10025000CA9BFECF2AE030E026C0CB9905C0CB9BDD
:10026000FECF2BE030E01FC042BBC9010197F1F780
:10027000C89905C0C89BFECF2CE030E014C0C999D6
:1002800005C0C99BFECF2DE030E00DC0CA9905C066
:10029000CA9BFECF2EE030E006C0CB9985CFCB9B2A
:1002A000FECF2FE030E0C9010895CF92DF92EF92A8
:1002B000FF920F931F93CF93DF938FEF84BB1ABAF4
:1002C00081BB8BBB0E94770081E00E94410084ECDF
:1002D00099E00197F1F780E090E061E00E94BF00B3
:1002E00081E090E062E00E94BF0082E090E063E085
:1002F0000E94BF0083E090E064E00E94BF0080E8BD
:100300000E94410080E690E00E948400C0E0D0E0BE
:10031000F4ECCF2EF9E0DF2EE9E1EE2EF12C0E9475
:10032000CE008C018A309105E9F481E00E94410001
:10033000C6010197F1F785E80E9441008CE690E044
:100340000E94840088E893E1F7013197F1F7019763
:10035000D9F78FEC0E9441006AE070E080E090E005
:100360000E949000CE0173E0880F991F7A95E1F703
:10037000CC0FDD1FC80FD91FC00FD11F8FEC0E94FB
:100380004100BE01882777FD8095982F0E9490003C
:10039000C6CFA1E21A2EAA1BBB1BFD010DC0AA1FCE
:1003A000BB1FEE1FFF1FA217B307E407F50720F0DE
:1003B000A21BB30BE40BF50B661F771F881F991F59
:1003C0001A9469F760957095809590959B01AC01A2
:0A03D000BD01CF010895F894FFCF9E
:1003DA00454E5445522050494E202D00706C65619F
:1003EA00736520656E7465722066756C6C20706921
:0203FA006E0093
:00000001FF
