:100000000C942A000C943F000C943F000C943F0089
:100010000C943F000C943F000C943F000C943F0064
:100020000C943F000C943F000C943F000C943F0054
:100030000C943F000C943F000C943F000C943F0044
:100040000C943F000C943F000C943F000C943F0034
:100050000C943F0011241FBECFE5D4E0DEBFCDBF1E
:1000600010E0A0E6B0E0E4EEF2E002C005900D92F0
:10007000A037B107D9F70E94BF000C9470010C940F
:100080000000282F207F25BBA898A998AA9A2AEFBC
:1000900030E0F9013197F1F7AA9890E044E0880F39
:1000A000991F4A95E1F785BBA898A998AA9AC90112
:1000B0000197F1F7AA980895282F207F25BBA89AC9
:1000C000A998AA9A2AEF30E0F9013197F1F7AA9896
:1000D00090E054E0880F991F5A95E1F785BBA89AE4
:1000E000A998AA9AC9010197F1F7AA98089582E000
:1000F0000E94410088E20E9441008CE00E94410081
:1001000086E00E9441000895CF93DF93EC0102C086
:100110000E945C0089918823D9F7DF91CF910895DF
:10012000EF92FF920F931F937B018C0184E00E945A
:10013000410018C0C801B7012AE030E040E050E0BB
:100140000E944E01862F805D0E945C00C801B701AD
:100150002AE030E040E050E00E944E01C901DA019F
:100160007C018D01E114F1040105110519F786E008
:100170000E9441001F910F91FF90EF9008956F92A0
:100180007F928F929F92AF92BF92CF92DF92EF9227
:10019000FF920F931F93CF93DF938FEF84BB0E9447
:1001A000770081E00E94410084EC99E00197F1F72B
:1001B000C9E1D0E084EC0E94410080E690E00E941A
:1001C000840071E0672E712C812C912C61C085E830
:1001D0000E94410089E690E00E9484008BEC0E941E
:1001E0004100C801B7010E94900080E197E2FE0142
:1001F0003197F1F70197D9F70894E11CF11C011D23
:10020000111D8CE3E816F1040105110501F788ECD6
:100210000E944100C601B5010E9490008AEC0E9434
:10022000410080E30E945C008BEC0E94410080E36F
:100230000E945C000894A11CB11CC11CD11C8CE361
:10024000A816B104C104D10421F0EE24FF248701D3
:10025000BECF85EC0E944100C401B3010E94900012
:1002600087EC0E94410080E30E945C0088EC0E94C1
:10027000410080E30E945C000894611C711C811C99
:10028000911C88E1681671048104910409F492CFED
:1002900061E0A62EB12CC12CD12CD7CFA1E21A2E11
:1002A000AA1BBB1BFD010DC0AA1FBB1FEE1FFF1F1A
:1002B000A217B307E407F50720F0A21BB30BE40B6A
:1002C000F50B661F771F881F991F1A9469F76095B1
:1002D0007095809590959B01AC01BD01CF0108956B
:0402E000F894FFCFC0
:1002E40030303A30303A30300057415443480000FF
:00000001FF
