:100000000C942A000C9434000C9434000C943400AA
:100010000C9434000C9434000C9434000C94340090
:100020000C9434000C9434000C9434000C94340080
:100030000C9434000C9434000C9434000C94340070
:100040000C9434000C9434000C9434000C94340060
:100050000C94340011241FBECFE5D4E0DEBFCDBF29
:100060000E9468000C94C2000C940000009711F4E8
:100070008FE327C08130910511F486E022C08230E1
:10008000910511F48BE51DC08330910511F48FE4C7
:1000900018C08430910511F486E613C085309105AF
:1000A00011F48DE60EC08630910511F48DE709C07C
:1000B0008730910511F487E004C08830910519F468
:1000C0008FE785BB0895099711F48FE685BB0895E6
:1000D000EF92FF920F931F93CF93DF938FEF84BB29
:1000E00083E081BBC0E0D0E0EE24E39409E110E0BE
:1000F00082E0F82EE2BACE016AE070E00E949B0036
:10010000CB010E94360080E197E2F8013197F1F7C8
:100110000197D9F7F2BACE016AE070E00E949B0025
:100120000E94360080E197E2F8013197F1F70197DC
:10013000D9F72196DFCF97FB092E07260AD077FD46
:1001400004D00CD006D000201AF4709561957F4F32
:100150000895F6F7909581959F4F0895AA1BBB1BB4
:1001600051E107C0AA1FBB1FA617B70710F0A61BB7
:10017000B70B881F991F5A95A9F780959095BC01D8
:08018000CD010895F894FFCFB2
:00000001FF
