:100000000C942A000C9434000C9434000C943400AA
:100010000C9434000C9434000C9434000C94340090
:100020000C9434000C9434000C9434000C94340080
:100030000C9434000C9434000C9434000C94340070
:100040000C9434000C9434000C9434000C94340060
:100050000C94340011241FBECFE5D4E0DEBFCDBF29
:100060000E9436000C9457000C9400008FEF87BB61
:1000700061E070E040E850E020E030E0E8EAF1E6DE
:1000800004C0660F771F55954795842F862B88BB34
:10009000CF010197F1F72F5F3F4F243031058CF3EB
:1000A00061E070E040E850E020E030E0EECFF8940E
:0200B000FFCF80
:00000001FF
