:100000000C942A000C943C000C943C000C943C0092
:100010000C943C000C943C000C943C000C943C0070
:100020000C943C000C943C000C943C000C943C0060
:100030000C943C000C943C000C943C000C943C0050
:100040000C943C000C943C000C943C000C943C0040
:100050000C943C0011241FBECFE5D4E0DEBFCDBF21
:1000600010E0A0E6B0E001C01D92A236B107E1F7B2
:100070000E9472000C9427010C9400008FE388BB4F
:10008000089586E088BB08958BE588BB08958FE4CA
:1000900088BB089586E688BB08958DE688BB0895E1
:1000A0008DE788BB089587E088BB08958FE788BBFC
:1000B00008958FE688BB089520E030E049E150E0E4
:1000C00009C08FEF9FEFFA013197F1F70197D9F748
:1000D0002F5F3F4F27303105A4F330936100209309
:1000E000600008953F924F925F926F927F928F923D
:1000F0009F92AF92BF92CF92DF92EF92FF920F93B7
:100100001F93CF93DF938FEF8ABB87BB84BB80E8BD
:1001100081BB00E010E0C0E0D0E08FE6682EBFE7D2
:100120007B2EA7E08A2EFDE79F2EEDE6DE2E76E6FB
:10013000A72E6FE4B62E5BE5E52E46E0C42E3FE326
:10014000F32E22E7322E99E7492E80E3582E01C084
:100150002196C630D10510F4F8BA35C0CE01069705
:10016000069710F4C8BA2FC0CE010C97069710F46A
:10017000E8BA29C0CE014297069710F4B8BA23C056
:10018000CE014897069710F4A8BA1DC0CE014E972D
:10019000069710F4D8BA17C0CE018497069710F4CA
:1001A00098BA11C0CE018A97069710F488BA0BC08E
:1001B000CE01C097069710F478BA05C0C633D105B2
:1001C00014F068BA21960115110511F4FBBA18C094
:1001D0000130110511F45BBA13C00230110511F49E
:1001E000DBBA0EC00330110511F44BBA09C004305C
:1001F000110511F43BBA04C00530110509F4EBBA3E
:10020000F5BA0E945C00C5BA0E945C00E5BA0E9483
:100210005C00B5BA0E945C00A5BA0E945C00D5BA29
:100220000E945C0095BA0E945C0085BA0E945C0046
:1002300075BA0E945C0065BA0E945C000F5F1F4F98
:100240000630110509F084CF00E010E081CFF8946A
:02025000FFCFDE
:00000001FF
