:100000000C942A000C9434000C9434000C943400AA
:100010000C9434000C9434000C9434000C94340090
:100020000C9434000C9434000C9434000C94340080
:100030000C9434000C9434000C9434000C94340070
:100040000C9434000C9434000C9434000C94340060
:100050000C94340011241FBECFE5D4E0DEBFCDBF29
:100060000E9436000C949B000C940000EF92FF92CB
:100070000F931F938FEF87BB90ECE92E29E130E0BF
:1000800089EFF82E04EA10EBB9E9A2E972E868EF0B
:1000900050E840E9E8BA80E197E2F9013197F1F7D9
:1000A0000197D9F7F8BA80E197E2F9013197F1F7B2
:1000B0000197D9F708BB80E197E2F9013197F1F791
:1000C0000197D9F718BB80E197E2F9013197F1F771
:1000D0000197D9F7B8BB80E197E2F9013197F1F7C1
:1000E0000197D9F7A8BB80E197E2F9013197F1F7C1
:1000F0000197D9F778BB80E197E2F9013197F1F7E1
:100100000197D9F768BB80E197E2F9013197F1F7E0
:100110000197D9F758BB80E197E2F9013197F1F7E0
:100120000197D9F748BB80E197E2F9013197F1F7E0
:0A0130000197D9F7AFCFF894FFCF85
:00000001FF
