:100000000C942A000C943F000C943F000C943F0089
:100010000C943F000C943F000C943F000C943F0064
:100020000C943F000C943F000C943F000C943F0054
:100030000C943F000C943F000C943F000C943F0044
:100040000C943F000C943F000C943F000C943F0034
:100050000C943F0011241FBECFE5D4E0DEBFCDBF1E
:1000600010E0A0E6B0E0E0E6F3E002C005900D92FB
:10007000AC36B107D9F70E94BF000C94AE010C94C6
:100080000000282F207F25BBA898A998AA9A2AEFBC
:1000900030E0F9013197F1F7AA9890E044E0880F39
:1000A000991F4A95E1F785BBA898A998AA9AC90112
:1000B0000197F1F7AA980895282F207F25BBA89AC9
:1000C000A998AA9A2AEF30E0F9013197F1F7AA9896
:1000D00090E054E0880F991F5A95E1F785BBA89AE4
:1000E000A998AA9AC9010197F1F7AA98089582E000
:1000F0000E94410088E20E9441008CE00E94410081
:1001000086E00E9441000895CF93DF93EC0102C086
:100110000E945C0089918823D9F7DF91CF910895DF
:10012000EF92FF920F931F937B018C0184E00E945A
:10013000410018C0C801B7012AE030E040E050E0BB
:100140000E948C01862F805D0E945C00C801B7016F
:100150002AE030E040E050E00E948C01C901DA0161
:100160007C018D01E114F1040105110519F786E008
:100170000E9441001F910F91FF90EF9008956F92A0
:100180007F928F929F92BF92CF92DF92EF92FF92D7
:100190000F931F93CF93DF931ABA8FEF87BB84BB64
:1001A0000E94770081E00E94410084EC99E0019771
:1001B000F1F7C0E0D0E0EE24FF2400E810E0F8E022
:1001C000BF2EE8EACE2EE1E6DE2E70E5872E73EC38
:1001D000972E64EC662E69E0762E89B383708130A9
:1001E00009F05CC089B383708130E1F3209779F422
:1001F000B5BAC6010197F1F715BA802F0E944100E8
:1002000080E690E00E948400C1E0D0E047C0C130A9
:10021000D10579F4B5BAC6010197F1F715BA802F67
:100220000E94410082E690E00E948400C2E0D0E09B
:1002300035C0C230D10579F4B5BAC6010197F1F7DE
:1002400015BA802F0E94410084E690E00E9484004D
:10025000C3E0D0E023C0C330D10579F4B5BAC601FC
:100260000197F1F715BA802F0E94410086E690E0D1
:100270000E948400C4E0D0E011C0C430D10571F404
:10028000B5BAC6010197F1F715BA802F0E94410057
:1002900088E690E00E948400C0E0D0E089B38370DB
:1002A000823079F489B383708230E1F30F5F1F4F9E
:1002B000C0E0D0E006C00894E11CF11CC401019725
:1002C000F1F789B383708330B1F3E114F10409F4D9
:1002D00084CF84E0E816F1047CF4802F0E94410072
:1002E0008AE690E00E94840001501040C601019708
:1002F000F1F7EE24FF2471CFB5BAC4010197F1F7ED
:1003000015BA81E00E944100C3010197F1F7EE2484
:10031000FF2400E810E061CFA1E21A2EAA1BBB1B4C
:10032000FD010DC0AA1FBB1FEE1FFF1FA217B307C1
:10033000E407F50720F0A21BB30BE40BF50B661FD7
:10034000771F881F991F1A9469F76095709580959B
:1003500090959B01AC01BD01CF010895F894FFCFAA
:0C03600041004200430044004500200022
:00000001FF
