:100000000C942A000C943C000C943C000C943C0092
:100010000C943C000C943C000C943C000C943C0070
:100020000C943C000C943C000C943C000C943C0060
:100030000C943C000C943C000C943C000C943C0050
:100040000C943C000C943C000C943C000C943C0040
:100050000C943C0011241FBECFE5D4E0DEBFCDBF21
:1000600010E0A0E6B0E001C01D92A236B107E1F7B2
:100070000E9409010C9406020C9400008FEE8BBBC9
:1000800089B389B389B3CB9B42C082FD03C020E012
:1000900030E03FC08FED8BBB89B399B389B3CB9967
:1000A00003C021E030E035C082FD03C022E030E033
:1000B00030C091FD03C023E030E02BC08FEB8BBB41
:1000C00089B399B389B3CB9903C024E030E021C050
:1000D00082FD03C025E030E01CC091FD03C026E096
:1000E00030E017C08FE78BBB89B399B389B3CB9945
:1000F00003C027E030E00DC082FD03C028E030E0FF
:1001000008C091FD03C029E030E003C008952AE053
:1001100030E0C9010895282F207F25BBA898A99811
:10012000AA9A2AEF30E0F9013197F1F7AA9890E006
:1001300044E0880F991F4A95E1F785BBA898A998D4
:10014000AA9AC9010197F1F7AA980895282F207F4C
:1001500025BBA89AA998AA9A2AEF30E0F90131970D
:10016000F1F7AA9890E054E0880F991F5A95E1F7AB
:1001700085BBA89AA998AA9AC9010197F1F7AA98EC
:10018000089582E00E948B0088E20E948B008CE040
:100190000E948B0086E00E948B000895CF93DF932E
:1001A000EC0102C00E94A60089918823D9F7DF9153
:1001B000CF910895EF92FF920F931F937B018C01D3
:1001C00084E00E948B0018C0C801B7012AE030E02B
:1001D00040E050E00E94E401862F805D0E94A6006E
:1001E000C801B7012AE030E040E050E00E94E4019D
:1001F000C901DA017C018D01E114F1040105110549
:1002000019F786E00E948B001F910F91FF90EF90ED
:100210000895CF92DF92EF92FF920F931F93CF93A7
:10022000DF9380EF8ABB8FEF84BB0E94C10081E027
:100230000E948B0084EC99E00197F1F7FFEECF2E3E
:10024000C4ECD9E0EFEDEE2E7FEBD72E6FE7F62E64
:10025000CBBA89B389B389B399B382FD0FC081E06A
:100260000E948B00CE010197F1F78FE80E948B006E
:1002700060E070E080E090E00E94DA00EBBA89B3C1
:1002800009B319B3CB990FC081E00E948B00CE0156
:100290000197F1F78FE80E948B0061E070E080E049
:1002A00090E00E94DA0012FD0FC081E00E948B00F6
:1002B000CE010197F1F78FE80E948B0062E070E0B9
:1002C00080E090E00E94DA0001FD0FC081E00E9412
:1002D0008B00CE010197F1F78FE80E948B0063E05D
:1002E00070E080E090E00E94DA00DBBA89B309B3E5
:1002F00019B3CB990FC081E00E948B00CE0101970A
:10030000F1F78FE80E948B0064E070E080E090E0FD
:100310000E94DA0012FD0FC081E00E948B00CE0126
:100320000197F1F78FE80E948B0065E070E080E0B4
:1003300090E00E94DA0001FD0FC081E00E948B0076
:10034000CE010197F1F78FE80E948B0066E070E024
:1003500080E090E00E94DA00FBBA89B309B319B3D8
:10036000CB990FC081E00E948B00CE010197F1F77D
:100370008FE80E948B0067E070E080E090E00E94D0
:10038000DA0012FD0FC081E00E948B00CE010197C0
:10039000F1F78FE80E948B0068E070E080E090E069
:1003A0000E94DA0001FD54CF81E00E948B00CE0153
:1003B0000197F1F78FE80E948B0069E070E080E020
:1003C00090E00E94DA0044CFA1E21A2EAA1BBB1BC8
:1003D000FD010DC0AA1FBB1FEE1FFF1FA217B30711
:1003E000E407F50720F0A21BB30BE40BF50B661F27
:1003F000771F881F991F1A9469F7609570958095EB
:1004000090959B01AC01BD01CF010895F894FFCFF9
:00000001FF
