:100000000C942A000C9434000C9434000C943400AA
:100010000C9434000C9434000C9434000C94340090
:100020000C9434000C9434000C9434000C94340080
:100030000C9434000C9434000C9434000C94340070
:100040000C9434000C9434000C9434000C94340060
:100050000C94340011241FBECFE5D4E0DEBFCDBF29
:100060000E9436000C9456000C9400001ABA83E0EB
:100070008BBB81E884BB8FEF87BB60EF50E84FEF0D
:100080003FE021E089B399B3927080FF05C09923C6
:1000900041F468BB55BBF6CF992329F038BB25BB8B
:1000A000F1CF18BA01C048BB15BAECCFF894FFCF16
:00000001FF
