:100000000C942A000C9434000C9434000C943400AA
:100010000C9434000C9434000C9434000C94340090
:100020000C9434000C9434000C9434000C94340080
:100030000C9434000C9434000C9434000C94340070
:100040000C9434000C9434000C9434000C94340060
:100050000C94340011241FBECFE5D4E0DEBFCDBF29
:100060000E943C000C94B6000C94000083B78A6197
:1000700083BF88E087BB0895CF92DF92EF92FF9213
:100080000F931F9383B78A6183BF88E087BB1ABA37
:100090008FEF8BBB81BB3EE0C32E44EC59E02BE3DA
:1000A000D22E29E130E094E3E92E8EE2F82E0CE224
:1000B0001DE0B6E2A2E27EE16CE1C2BACA0101979C
:1000C000F1F7C89908C0DCBE80E197E2F9013197E9
:1000D000F1F70197D9F7C99908C0ECBE80E197E222
:1000E000F9013197F1F70197D9F7CA9908C0FCBE19
:1000F00080E197E2F9013197F1F70197D9F7CB99B0
:1001000008C00CBF80E197E2F9013197F1F7019740
:10011000D9F712BBCA010197F1F7C89908C0BCBF53
:1001200080E197E2F9013197F1F70197D9F7C99981
:1001300008C0ACBF80E197E2F9013197F1F7019770
:10014000D9F7CA9908C07CBF80E197E2F9013197DD
:10015000F1F70197D9F7CB99B0CF6CBF80E197E267
:10016000F9013197F1F70197D9F7A7CFF894FFCFAD
:00000001FF
