:100000000C942A000C943F000C943F000C943F0089
:100010000C943F000C943F000C943F000C943F0064
:100020000C943F000C943F000C943F000C943F0054
:100030000C943F000C943F000C943F000C943F0044
:100040000C943F000C943F000C943F000C943F0034
:100050000C943F0011241FBECFE5D4E0DEBFCDBF1E
:1000600010E0A0E6B0E0ECEEF1E002C005900D92E9
:10007000A636B107D9F70E94BF000C94F4000C9487
:100080000000282F207F25BBA898A998AA9A2AEFBC
:1000900030E0F9013197F1F7AA9890E044E0880F39
:1000A000991F4A95E1F785BBA898A998AA9AC90112
:1000B0000197F1F7AA980895282F207F25BBA89AC9
:1000C000A998AA9A2AEF30E0F9013197F1F7AA9896
:1000D00090E054E0880F991F5A95E1F785BBA89AE4
:1000E000A998AA9AC9010197F1F7AA98089582E000
:1000F0000E94410088E20E9441008CE00E94410081
:1001000086E00E9441000895CF93DF93EC0102C086
:100110000E945C0089918823D9F7DF91CF910895DF
:10012000EF92FF920F931F937B018C0184E00E945A
:10013000410018C0C801B7012AE030E040E050E0BB
:100140000E94D200862F805D0E945C00C801B7012A
:100150002AE030E040E050E00E94D200C901DA011C
:100160007C018D01E114F1040105110519F786E008
:100170000E9441001F910F91FF90EF9008958FEF23
:1001800084BB0E94770081E00E94410084EC99E0EA
:100190000197F1F786E80E94410080E690E00E9416
:1001A00084000895A1E21A2EAA1BBB1BFD010DC0FD
:1001B000AA1FBB1FEE1FFF1FA217B307E407F50717
:1001C00020F0A21BB30BE40BF50B661F771F881FF3
:1001D000991F1A9469F760957095809590959B0189
:0C01E000AC01BD01CF010895F894FFCFE1
:0601EC00412E4D2E000023
:00000001FF
