:100000000C942A000C9434000C9434000C943400AA
:100010000C9434000C9434000C9434000C94340090
:100020000C9434000C9434000C9434000C94340080
:100030000C9434000C9434000C9434000C94340070
:100040000C9434000C9434000C9434000C94340060
:100050000C94340011241FBECFE5D4E0DEBFCDBF29
:100060000E94C2000C942A010C940000282F207FCB
:1000700025BBA898A998AA9A2AEF30E0F9013197F0
:10008000F1F7AA9890E044E0880F991F4A95E1F7AC
:1000900085BBA898A998AA9AC9010197F1F7AA98CF
:1000A0000895282F207F25BBA89AA998AA9A2AEFFD
:1000B00030E0F9013197F1F7AA9890E054E0880F09
:1000C000991F5A95E1F785BBA89AA998AA9AC901E0
:1000D0000197F1F7AA98089582E00E94360088E21D
:1000E0000E9436008CE00E94360086E00E943600B6
:1000F0000895CF93DF93EC0102C00E9451008991D3
:100100008823D9F7DF91CF910895EF92FF920F9353
:100110001F937B018C0184E00E94360018C0C80147
:10012000B7012AE030E040E050E00E940801862F4D
:10013000805D0E945100C801B7012AE030E040E034
:1001400050E00E940801C901DA017C018D01E1142F
:10015000F1040105110519F786E00E9436001F9190
:100160000F91FF90EF9008953E9A86B1876886B907
:100170000895806487B9369A86B1349A24B135B12E
:10018000C9010895FF920F931F938FEF84BB80EEF8
:100190008ABB0E946C003E9A86B1876886B981E06E
:1001A0000E94360084EC99E00197F1F760E4F62EA6
:1001B00001E412E4F7B8369A86B1349A84B195B165
:1001C00084E80E94360064B175B180E090E00E943E
:1001D000850007B9369A86B1349A84B195B18FE813
:1001E0000E94360064B175B180E090E00E94850005
:1001F00017B9369A86B1349A84B195B18FEC0E94C2
:10020000360064B175B180E090E00E948500D2CFE5
:10021000A1E21A2EAA1BBB1BFD010DC0AA1FBB1F0A
:10022000EE1FFF1FA217B307E407F50720F0A21B7C
:10023000B30BE40BF50B661F771F881F991F1A94E9
:1002400069F760957095809590959B01AC01BD0113
:08025000CF010895F894FFCFDF
:00000001FF
