:100000000C942A000C9434000C9434000C943400AA
:100010000C9434000C9434000C9434000C94340090
:100020000C9434000C9434000C9434000C94340080
:100030000C9434000C9434000C9434000C94340070
:100040000C9434000C9434000C9434000C94340060
:100050000C94340011241FBECFE5D4E0DEBFCDBF29
:100060000E9436000C9469000C9400001F938FEFDF
:1000700087BB11E028EA31E6B2E0A3E0F4E0E5E076
:1000800076E067E058E049E018BBC9010197F1F755
:10009000B8BBC9010197F1F7A8BBC9010197F1F7F6
:1000A000F8BBC9010197F1F7E8BBC9010197F1F766
:1000B00078BBC9010197F1F768BBC9010197F1F756
:1000C00058BBC9010197F1F748BBC9010197F1F786
:0600D000DBCFF894FFCF26
:00000001FF
