:100000000C942A000C9434000C9434000C943400AA
:100010000C9434000C9434000C9434000C94340090
:100020000C9434000C9434000C9434000C94340080
:100030000C9434000C9434000C9434000C94340070
:100040000C9434000C9434000C9434000C94340060
:100050000C94340011241FBECFE5D4E0DEBFCDBF29
:100060000E9440010C9459050C940000282F207F19
:1000700025BBA898A998AA9A2AEF30E0F9013197F0
:10008000F1F7AA9890E044E0880F991F4A95E1F7AC
:1000900085BBA898A998AA9AC9010197F1F7AA98CF
:1000A0000895282F207F25BBA89AA998AA9A2AEFFD
:1000B00030E0F9013197F1F7AA9890E054E0880F09
:1000C000991F5A95E1F785BBA89AA998AA9AC901E0
:1000D0000197F1F7AA98089582E00E94360088E21D
:1000E0000E9436008CE00E94360086E00E943600B6
:1000F0000895CF93DF93EC0102C00E9451008991D3
:100100008823D9F7DF91CF910895EF92FF920F9353
:100110001F937B018C0184E00E94360018C0C80147
:10012000B7012AE030E040E050E00E940805862F49
:10013000805D0E945100C801B7012AE030E040E034
:1001400050E00E940805C901DA017C018D01E1142B
:10015000F1040105110519F786E00E9436001F9190
:100160000F91FF90EF9008958FEE8BBB39B329B3B9
:1001700089B399B382FF5BC030FD03C02AE030E051
:1001800058C021FD03C02FE030E053C093FD03C0F1
:1001900020E130E04EC08FED8BBB29B399B389B31A
:1001A000CB9903C021E030E044C082FD03C022E0CF
:1001B00030E03FC091FD03C023E030E03AC020FDB5
:1001C00003C02BE030E035C08FEB8BBB29B399B374
:1001D00089B3CB9903C024E030E02BC082FD03C07B
:1001E00025E030E026C091FD03C026E030E021C0CC
:1001F00020FD03C02CE030E01CC08FE78BBB29B38F
:1002000099B389B3CB9903C027E030E012C082FDD7
:1002100003C028E030E00DC091FD03C029E030E0CC
:1002200008C020FD03C02DE030E003C0089520E0A9
:1002300030E0C9010895680F791FCB010895689FC8
:100240009001699F300D789F300D1124C9010895E8
:100250006817790744F4861B970B9C01442737FDE8
:100260004095542F07C0681B790B9B01442737FD2D
:100270004095542FC90108950E94F504CB010895BB
:100280002F923F924F925F926F927F928F929F92A6
:10029000AF92BF92CF92DF92EF92FF920F931F9394
:1002A000CF93DF938FEF84BB80EF8ABB0E946C00FB
:1002B00081E00E94360084EC99E00197F1F710E8A4
:1002C000E12EF12CB4EC2B2EB9E03B2E81E00E9404
:1002D0003600C1010197F1F780E80E94360080E303
:1002E0000E94510000E010E0C0E0D0E074C30E9422
:1002F000B400009709F03EC067010894C11CD11CEE
:1003000021E0A216B104D1F081E00E943600C101C3
:100310000197F1F7C801880F991FF3E0000F111F33
:10032000FA95E1F7080F191F8E2D0E943600B801CB
:1003300080E090E00E948500760113C0CE01880F16
:10034000991F73E0CC0FDD1F7A95E1F7C80FD91F15
:1003500076018C2D0E943600BE0180E090E00E9464
:10036000850088E893E1E9E1F0E03197F1F7019742
:10037000D1F736C38130910509F041C06701089477
:10038000C11CD11C81E0A816B104E1F081E00E94FB
:100390003600C1010197F1F7C80163E0880F991F8A
:1003A0006A95E1F7000F111F080F191F0F5F1F4F0C
:1003B0008E2D0E943600B80180E090E00E948500FA
:1003C000760114C0CE0143E0880F991F4A95E1F7EA
:1003D000CC0FDD1FC80FD91F219676018C2D0E94EE
:1003E0003600BE0180E090E00E94850088E893E13D
:1003F000E9E1F0E03197F1F70197D1F7F1C28230EE
:10040000910509F03FC067010894C11CD11C21E08F
:10041000A216B104D9F081E00E943600C101019713
:10042000F1F7C801880F991F880F991F080F191F2E
:100430000F5F1F4F000F111F8E2D0E943600B80155
:1004400080E090E00E948500760113C0CE01880F05
:10045000991F880F991FC80FD91F2196CC0FDD1F38
:1004600076018C2D0E943600BE0180E090E00E9453
:10047000850088E893E1E9E1F0E03197F1F7019731
:10048000D1F7AEC28330910509F041C067010894ED
:10049000C11CD11C81E0A816B104E1F081E00E94EA
:1004A0003600C1010197F1F7C801F3E0880F991FE9
:1004B000FA95E1F7000F111F080F191F0D5F1F4F6D
:1004C0008E2D0E943600B80180E090E00E948500E9
:1004D000760114C0CE0173E0880F991F7A95E1F779
:1004E000CC0FDD1FC80FD91F239676018C2D0E94DB
:1004F0003600BE0180E090E00E94850088E893E12C
:10050000E9E1F0E03197F1F70197D1F769C2843062
:10051000910509F041C067010894C11CD11C21E07C
:10052000A216B104E1F081E00E943600C1010197FA
:10053000F1F7C80153E0880F991F5A95E1F7000FB2
:10054000111F080F191F0C5F1F4F8E2D0E943600C0
:10055000B80180E090E00E948500760114C0CE01D1
:1005600033E0880F991F3A95E1F7CC0FDD1FC80FD4
:10057000D91F249676018C2D0E943600BE0180E0A2
:1005800090E00E94850088E893E1E9E1F0E031978E
:10059000F1F70197D1F724C28530910509F041C0E8
:1005A00067010894C11CD11C81E0A816B104E1F0D8
:1005B00081E00E943600C1010197F1F7C801B3E064
:1005C000880F991FBA95E1F7000F111F080F191F27
:1005D0000B5F1F4F8E2D0E943600B80180E090E027
:1005E0000E948500760114C0CE01F3E0880F991FA8
:1005F000FA95E1F7CC0FDD1FC80FD91F25967601BC
:100600008C2D0E943600BE0180E090E00E948500A3
:1006100088E893E1E9E1F0E03197F1F70197D1F74C
:10062000DFC18630910509F041C067010894C11C03
:10063000D11C21E0A216B104E1F081E00E94360055
:10064000C1010197F1F7C80173E0880F991F7A95EE
:10065000E1F7000F111F080F191F0A5F1F4F8E2DA2
:100660000E943600B80180E090E00E94850076018B
:1006700014C0CE0153E0880F991F5A95E1F7CC0FB3
:10068000DD1FC80FD91F269676018C2D0E943600DB
:10069000BE0180E090E00E94850088E893E1E9E1F6
:1006A000F0E03197F1F70197D1F79AC187309105C2
:1006B00009F041C067010894C11CD11C81E0A81653
:1006C000B104E1F081E00E943600C1010197F1F729
:1006D000C80133E0880F991F3A95E1F7000F111F09
:1006E000080F191F095F1F4F8E2D0E943600B80199
:1006F00080E090E00E948500760114C0CE01B3E056
:10070000880F991FBA95E1F7CC0FDD1FC80FD91FCD
:10071000279676018C2D0E943600BE0180E090E085
:100720000E94850088E893E1E9E1F0E03197F1F774
:100730000197D1F755C18830910509F041C0670193
:100740000894C11CD11C21E0A216B104E1F081E0A3
:100750000E943600C1010197F1F7C801F3E0880F4C
:10076000991FFA95E1F7000F111F080F191F085F75
:100770001F4F8E2D0E943600B80180E090E00E944D
:100780008500760114C0CE0173E0880F991F7A9519
:10079000E1F7CC0FDD1FC80FD91F289676018C2DED
:1007A0000E943600BE0180E090E00E94850088E84B
:1007B00093E1E9E1F0E03197F1F70197D1F710C14A
:1007C0008930910509F041C067010894C11CD11C12
:1007D00081E0A816B104E1F081E00E943600C10179
:1007E0000197F1F7C80153E0880F991F5A95E1F777
:1007F000000F111F080F191F075F1F4F8E2D0E943A
:100800003600B80180E090E00E948500760114C0B7
:10081000CE0133E0880F991F3A95E1F7CC0FDD1F29
:10082000C80FD91F299676018C2D0E943600BE0173
:1008300080E090E00E94850088E893E1E9E1F0E043
:100840003197F1F70197D1F7CBC08A30910551F478
:100850008E2D0E9436008BE20E9451009AE0492EB4
:10086000512C0CC08B30910569F48E2D0E943600FE
:100870008DE20E9451008BE0482E512CB1E0AB2E4E
:10088000B12CAEC08C30910551F48E2D0E943600F3
:1008900088E50E945100ACE04A2E512CEFCF8D30FC
:1008A000910551F48E2D0E9436008FE20E94510076
:1008B000FDE04F2E512CE2CF8F30910509F074C02E
:1008C0002AE04216510421F4CE01800F911F2DC061
:1008D0008BE048165104A9F4C017D10724F4C801CD
:1008E0008C1B9D0B03C0CE01801B910B9C014427E8
:1008F00037FD4095542F3901882477FC8094982C3B
:1009000019C02CE04216510441F4C09FC001C19FA0
:10091000900DD09F900D112408C08DE04816510411
:1009200049F4C801BE010E943C013C01882477FCC7
:100930008094982C8FEC0E943600C401B3010E9471
:1009400085000C171D0708F04BC02BE04216510420
:1009500009F046C0E1E0CE2ED12CC401B3012AE05B
:1009600030E040E050E00E942A05C901DA013C0174
:100970004D01C6010894C11CD11C22E0621671040D
:10098000810491044CF072E0C72ED12CC80ED91E00
:1009900081E1C816D10409F78FEC8C190E9436004A
:1009A0008DE20E9451001CC04097D1F481E00E946A
:1009B0003600C1010197F1F780E80E94360080E31C
:1009C0000E94510060E8E62EF12C00E010E0C0E04B
:1009D000D0E044245524AA24BB2466247724430170
:1009E0008BB38F3F09F472CC82CC97FB092E07267C
:1009F0000AD077FD04D049D006D000201AF47095B3
:100A000061957F4F0895F6F7909581959F4F0895D2
:100A1000A1E21A2EAA1BBB1BFD010DC0AA1FBB1F02
:100A2000EE1FFF1FA217B307E407F50720F0A21B74
:100A3000B30BE40BF50B661F771F881F991F1A94E1
:100A400069F760957095809590959B01AC01BD010B
:100A5000CF01089597FB092E05260ED057FD04D02F
:100A6000D7DF0AD0001C38F4509540953095219579
:100A70003F4F4F4F5F4F0895F6F7909580957095D3
:100A800061957F4F8F4F9F4F0895AA1BBB1B51E16C
:100A900007C0AA1FBB1FA617B70710F0A61BB70BEE
:100AA000881F991F5A95A9F780959095BC01CD0193
:060AB0000895F894FFCF49
:00000001FF
