:100000000C942A000C9434000C9434000C943400AA
:100010000C9434000C9434000C9434000C94340090
:100020000C9434000C9434000C9434000C94340080
:100030000C9434000C9434000C9434000C94340070
:100040000C9434000C9434000C9434000C94340060
:100050000C94340011241FBECFE5D4E0DEBFCDBF29
:100060000E94FD000C9483010C940000282F207F37
:1000700025BBA898A998AA9A2AEF30E0F9013197F0
:10008000F1F7AA9890E044E0880F991F4A95E1F7AC
:1000900085BBA898A998AA9AC9010197F1F7AA98CF
:1000A0000895282F207F25BBA89AA998AA9A2AEFFD
:1000B00030E0F9013197F1F7AA9890E054E0880F09
:1000C000991F5A95E1F785BBA89AA998AA9AC901E0
:1000D0000197F1F7AA98089582E00E94360088E21D
:1000E0000E9436008CE00E94360086E00E943600B6
:1000F0000895CF93DF93EC0102C00E9451008991D3
:100100008823D9F7DF91CF910895EF92FF920F9353
:100110001F937B018C0184E00E94360018C0C80147
:10012000B7012AE030E040E050E00E946101862FF4
:10013000805D0E945100C801B7012AE030E040E034
:1001400050E00E946101C901DA017C018D01E114D6
:10015000F1040105110519F786E00E9436001F9190
:100160000F91FF90EF9008958FEE8BBB89B389B309
:1001700089B399B382FF3DC08FED8BBB89B399B32F
:1001800089B3CB9903C021E030E035C082FD03C0C4
:1001900022E030E030C091FD03C023E030E02BC00E
:1001A0008FEB8BBB89B399B389B3CB9903C024E0A0
:1001B00030E021C082FD03C025E030E01CC091FD8D
:1001C00003C026E030E017C08FE78BBB89B399B33B
:1001D00089B3CB9903C027E030E00DC082FD03C096
:1001E00028E030E008C091FD03C029E030E003C002
:1001F000089520E030E0C90108958FEF84BB80EFBF
:100200008ABB0E946C0081E00E94360084EC99E079
:100210000197F1F704C00E94B400009729F480E828
:100220000E94360080E346C08130910529F480E8C1
:100230000E94360081E33EC08230910529F480E8B7
:100240000E94360082E336C08330910529F480E8AD
:100250000E94360083E32EC08430910529F480E8A3
:100260000E94360084E326C08530910529F480E899
:100270000E94360085E31EC08630910529F480E88F
:100280000E94360086E316C08730910529F480E885
:100290000E94360087E30EC08830910529F480E87B
:1002A0000E94360088E306C0099731F480E80E9476
:1002B000360089E30E9451008BB38F3F09F4AFCF22
:1002C000AACFA1E21A2EAA1BBB1BFD010DC0AA1FBB
:1002D000BB1FEE1FFF1FA217B307E407F50720F0AF
:1002E000A21BB30BE40BF50B661F771F881F991F2A
:1002F0001A9469F760957095809590959B01AC0173
:0A030000BD01CF010895F894FFCF6E
:00000001FF
