:100000000C942A000C9434000C9434000C943400AA
:100010000C9434000C9434000C9434000C94340090
:100020000C9434000C9434000C9434000C94340080
:100030000C9434000C9434000C9434000C94340070
:100040000C9434000C9434000C9434000C94340060
:100050000C94340011241FBECFE5D4E0DEBFCDBF29
:100060000E94C2000C9454010C940000282F207FA1
:1000700025BBA898A998AA9A2AEF30E0F9013197F0
:10008000F1F7AA9890E044E0880F991F4A95E1F7AC
:1000900085BBA898A998AA9AC9010197F1F7AA98CF
:1000A0000895282F207F25BBA89AA998AA9A2AEFFD
:1000B00030E0F9013197F1F7AA9890E054E0880F09
:1000C000991F5A95E1F785BBA89AA998AA9AC901E0
:1000D0000197F1F7AA98089582E00E94360088E21D
:1000E0000E9436008CE00E94360086E00E943600B6
:1000F0000895CF93DF93EC0102C00E9451008991D3
:100100008823D9F7DF91CF910895EF92FF920F9353
:100110001F937B018C0184E00E94360018C0C80147
:10012000B7012AE030E040E050E00E943201862F23
:10013000805D0E945100C801B7012AE030E040E034
:1001400050E00E943201C901DA017C018D01E11405
:10015000F1040105110519F786E00E9436001F9190
:100160000F91FF90EF9008953E9A86B1876886B907
:100170000895806487B9369A86B1349A24B135B12E
:10018000C9010895EF92FF921F93CF93DF938FEFF2
:1001900084BB82E08ABB0E946C003E9A86B187686D
:1001A00086B981E00E94360084EC99E00197F1F76E
:1001B00010E864ECE62E69E0F62EC9E1D0E089B3E0
:1001C000817089BB89B38823D1F381E00E94360016
:1001D000C7010197F1F7812F0E94360080E00E944D
:1001E00051001F5F812F0E94360081E00E94510064
:1001F00088E893E1FE013197F1F70197D9F7DFCF56
:1002000080E40E94360080E00E94510080E00E945D
:10021000510088E10E9451008CE10E9451008FE161
:100220000E9451008FE10E9451008CE00E94510019
:10023000089588E40E94360080E00E94510080E02A
:100240000E94510083E00E94510087E00E9451000B
:100250008FE10E9451008FE10E9451008CE00E94CA
:1002600051000895A1E21A2EAA1BBB1BFD010DC06F
:10027000AA1FBB1FEE1FFF1FA217B307E407F50756
:1002800020F0A21BB30BE40BF50B661F771F881F32
:10029000991F1A9469F760957095809590959B01C8
:0C02A000AC01BD01CF010895F894FFCF20
:00000001FF
