:100000000C942A000C943F000C943F000C943F0089
:100010000C943F000C943F000C943F000C943F0064
:100020000C943F000C943F000C943F000C943F0054
:100030000C943F000C943F000C943F000C943F0044
:100040000C943F000C943F000C943F000C943F0034
:100050000C943F0011241FBECFE5D4E0DEBFCDBF1E
:1000600010E0A0E6B0E0EAE3F3E002C005900D92F4
:10007000A636B107D9F70E9423010C949B010C947A
:100080000000282F207F25BBA898A998AA9A2AEFBC
:1000900030E0F9013197F1F7AA9890E044E0880F39
:1000A000991F4A95E1F785BBA898A998AA9AC90112
:1000B0000197F1F7AA980895282F207F25BBA89AC9
:1000C000A998AA9A2AEF30E0F9013197F1F7AA9896
:1000D00090E054E0880F991F5A95E1F785BBA89AE4
:1000E000A998AA9AC9010197F1F7AA98089582E000
:1000F0000E94410088E20E9441008CE00E94410081
:1001000086E00E9441000895CF93DF93EC0102C086
:100110000E945C0089918823D9F7DF91CF910895DF
:10012000EF92FF920F931F937B018C0184E00E945A
:10013000410018C0C801B7012AE030E040E050E0BB
:100140000E947901862F805D0E945C00C801B70182
:100150002AE030E040E050E00E947901C901DA0174
:100160007C018D01E114F1040105110519F786E008
:100170000E9441001F910F91FF90EF90089580E43D
:100180000E94410080E00E945C0084E00E945C00CC
:1001900084E00E945C0080E00E945C0084E00E9499
:1001A0005C0084E00E945C0080E00E945C00089596
:1001B00088E40E9441008FE10E945C0081E10E947E
:1001C0005C0081E10E945C0081E10E945C0081E1B1
:1001D0000E945C0081E10E945C008FE10E945C0053
:1001E000089580E50E94410080E00E945C0080E06C
:1001F0000E945C0080E00E945C008EE00E945C0037
:1002000081E10E945C008FE10E945C0081E10E941C
:100210005C00089588E50E94410080E00E945C0037
:1002200080E00E945C0080E00E945C0081E10E940E
:100230005C008BE10E945C0085E10E945C0081E132
:100240000E945C0008950F931F93CF93DF938FEF6D
:1002500084BB0E9477000E940A010E94F1000E9464
:10026000BF000E94D80081E00E94410084EC99E028
:100270000197F1F70AEF10E0C4ECD9E085E80E949D
:10028000410080E690E00E948400C8010197F1F7E8
:1002900085EC0E94410081E00E945C00CE01019744
:1002A000F1F787EC0E94410081E00E945C00CE01E2
:1002B0000197F1F788EC0E94410081E00E945C0008
:1002C000CE010197F1F786EC0E94410080E00E9488
:1002D0005C00CE010197F1F789EC0E94410082E0B9
:1002E0000E945C0083E00E945C00CE010197F1F760
:1002F000C5CFA1E21A2EAA1BBB1BFD010DC0AA1F70
:10030000BB1FEE1FFF1FA217B307E407F50720F07E
:10031000A21BB30BE40BF50B661F771F881F991FF9
:100320001A9469F760957095809590959B01AC0142
:0A033000BD01CF010895F894FFCF3E
:06033A00434C4F434B0051
:00000001FF
